{
  "_format": "hh-sol-artifact-1",
  "contractName": "NftMarketplace",
  "sourceName": "contracts/NftMarketplace.sol",
  "abi": [
    {
      "inputs": [
        {
          "internalType": "address",
          "name": "",
          "type": "address"
        },
        {
          "internalType": "uint256",
          "name": "",
          "type": "uint256"
        }
      ],
      "name": "NFTMarketplace__AlreadyListed",
      "type": "error"
    },
    {
      "inputs": [],
      "name": "NFTMarketplace__NoProceeds",
      "type": "error"
    },
    {
      "inputs": [],
      "name": "NFTMarketplace__NotApprovedForMarketplace",
      "type": "error"
    },
    {
      "inputs": [
        {
          "internalType": "address",
          "name": "",
          "type": "address"
        },
        {
          "internalType": "uint256",
          "name": "",
          "type": "uint256"
        },
        {
          "internalType": "uint256",
          "name": "",
          "type": "uint256"
        }
      ],
      "name": "NFTMarketplace__NotEnoughFunds",
      "type": "error"
    },
    {
      "inputs": [],
      "name": "NFTMarketplace__NotOwner",
      "type": "error"
    },
    {
      "inputs": [],
      "name": "NFTMarketplace__PriceCantBeZero",
      "type": "error"
    },
    {
      "inputs": [],
      "name": "NFTMarketplace__TransactionFailed",
      "type": "error"
    },
    {
      "inputs": [],
      "name": "NFTMarkteplace__NftNotListed",
      "type": "error"
    },
    {
      "anonymous": false,
      "inputs": [
        {
          "indexed": true,
          "internalType": "address",
          "name": "buyer",
          "type": "address"
        },
        {
          "indexed": true,
          "internalType": "address",
          "name": "nftBought",
          "type": "address"
        },
        {
          "indexed": true,
          "internalType": "uint256",
          "name": "tokenId",
          "type": "uint256"
        },
        {
          "indexed": false,
          "internalType": "uint256",
          "name": "price",
          "type": "uint256"
        }
      ],
      "name": "ItemBought",
      "type": "event"
    },
    {
      "anonymous": false,
      "inputs": [
        {
          "indexed": true,
          "internalType": "address",
          "name": "seller",
          "type": "address"
        },
        {
          "indexed": true,
          "internalType": "address",
          "name": "nftAddress",
          "type": "address"
        },
        {
          "indexed": false,
          "internalType": "uint256",
          "name": "tokenId",
          "type": "uint256"
        }
      ],
      "name": "ItemCanceled",
      "type": "event"
    },
    {
      "anonymous": false,
      "inputs": [
        {
          "indexed": true,
          "internalType": "address",
          "name": "sender",
          "type": "address"
        },
        {
          "indexed": true,
          "internalType": "address",
          "name": "nftAddress",
          "type": "address"
        },
        {
          "indexed": true,
          "internalType": "uint256",
          "name": "tokenId",
          "type": "uint256"
        },
        {
          "indexed": false,
          "internalType": "uint256",
          "name": "price",
          "type": "uint256"
        }
      ],
      "name": "ItemListed",
      "type": "event"
    },
    {
      "inputs": [
        {
          "internalType": "address",
          "name": "nftAddress",
          "type": "address"
        },
        {
          "internalType": "uint256",
          "name": "tokenId",
          "type": "uint256"
        }
      ],
      "name": "buyItem",
      "outputs": [],
      "stateMutability": "payable",
      "type": "function"
    },
    {
      "inputs": [
        {
          "internalType": "address",
          "name": "nftAddress",
          "type": "address"
        },
        {
          "internalType": "uint256",
          "name": "tokenId",
          "type": "uint256"
        }
      ],
      "name": "cancelListing",
      "outputs": [],
      "stateMutability": "nonpayable",
      "type": "function"
    },
    {
      "inputs": [
        {
          "internalType": "address",
          "name": "nftAddress",
          "type": "address"
        },
        {
          "internalType": "uint256",
          "name": "tokenId",
          "type": "uint256"
        }
      ],
      "name": "getListings",
      "outputs": [
        {
          "components": [
            {
              "internalType": "uint256",
              "name": "price",
              "type": "uint256"
            },
            {
              "internalType": "address",
              "name": "seller",
              "type": "address"
            }
          ],
          "internalType": "struct NftMarketplace.Listing",
          "name": "",
          "type": "tuple"
        }
      ],
      "stateMutability": "view",
      "type": "function"
    },
    {
      "inputs": [
        {
          "internalType": "address",
          "name": "seller",
          "type": "address"
        }
      ],
      "name": "getProceeds",
      "outputs": [
        {
          "internalType": "uint256",
          "name": "tokenId",
          "type": "uint256"
        }
      ],
      "stateMutability": "view",
      "type": "function"
    },
    {
      "inputs": [
        {
          "internalType": "address",
          "name": "nftAdrress",
          "type": "address"
        },
        {
          "internalType": "uint256",
          "name": "tokenId",
          "type": "uint256"
        },
        {
          "internalType": "uint256",
          "name": "price",
          "type": "uint256"
        }
      ],
      "name": "listItem",
      "outputs": [],
      "stateMutability": "nonpayable",
      "type": "function"
    },
    {
      "inputs": [
        {
          "internalType": "address",
          "name": "nftAddress",
          "type": "address"
        },
        {
          "internalType": "uint256",
          "name": "tokenId",
          "type": "uint256"
        },
        {
          "internalType": "uint256",
          "name": "newPrice",
          "type": "uint256"
        }
      ],
      "name": "updateListing",
      "outputs": [],
      "stateMutability": "nonpayable",
      "type": "function"
    },
    {
      "inputs": [],
      "name": "withdrawProcceds",
      "outputs": [],
      "stateMutability": "nonpayable",
      "type": "function"
    }
  ],
  "bytecode": "0x608060405234801561001057600080fd5b50600160008190555061173a806100286000396000f3fe6080604052600436106100705760003560e01c80639f37092a1161004e5780639f37092a146100f2578063b2ddee061461010e578063e3278e7914610137578063f772adf11461017457610070565b80630488c0771461007557806330cfeda91461008c57806389bfd38f146100c9575b600080fd5b34801561008157600080fd5b5061008a61019d565b005b34801561009857600080fd5b506100b360048036038101906100ae9190611328565b610307565b6040516100c091906115ad565b60405180910390f35b3480156100d557600080fd5b506100f060048036038101906100eb91906113c2565b610350565b005b61010c60048036038101906101079190611382565b6107c8565b005b34801561011a57600080fd5b5061013560048036038101906101309190611382565b610be4565b005b34801561014357600080fd5b5061015e60048036038101906101599190611382565b610ed0565b60405161016b9190611592565b60405180910390f35b34801561018057600080fd5b5061019b600480360381019061019691906113c2565b610f9b565b005b6000600260003373ffffffffffffffffffffffffffffffffffffffff1673ffffffffffffffffffffffffffffffffffffffff1681526020019081526020016000205490506000811161021b576040517faf2d092000000000000000000000000000000000000000000000000000000000815260040160405180910390fd5b6000600260003373ffffffffffffffffffffffffffffffffffffffff1673ffffffffffffffffffffffffffffffffffffffff1681526020019081526020016000208190555060003373ffffffffffffffffffffffffffffffffffffffff1682604051610286906114c6565b60006040518083038185875af1925050503d80600081146102c3576040519150601f19603f3d011682016040523d82523d6000602084013e6102c8565b606091505b5050905080610303576040517f17b0267d00000000000000000000000000000000000000000000000000000000815260040160405180910390fd5b5050565b6000600260008373ffffffffffffffffffffffffffffffffffffffff1673ffffffffffffffffffffffffffffffffffffffff168152602001908152602001600020549050919050565b8282336000600160008573ffffffffffffffffffffffffffffffffffffffff1673ffffffffffffffffffffffffffffffffffffffff1681526020019081526020016000206000848152602001908152602001600020604051806040016040529081600082015481526020016001820160009054906101000a900473ffffffffffffffffffffffffffffffffffffffff1673ffffffffffffffffffffffffffffffffffffffff1673ffffffffffffffffffffffffffffffffffffffff1681525050905060008160000151111561045e5783836040517fe3775ccb000000000000000000000000000000000000000000000000000000008152600401610455929190611512565b60405180910390fd5b868633600083905060008173ffffffffffffffffffffffffffffffffffffffff16636352211e856040518263ffffffff1660e01b81526004016104a191906115ad565b60206040518083038186803b1580156104b957600080fd5b505afa1580156104cd573d6000803e3d6000fd5b505050506040513d601f19601f820116820180604052508101906104f19190611355565b90508073ffffffffffffffffffffffffffffffffffffffff168373ffffffffffffffffffffffffffffffffffffffff1614610558576040517f98ca622600000000000000000000000000000000000000000000000000000000815260040160405180910390fd5b60008a11610592576040517fe5e25e9100000000000000000000000000000000000000000000000000000000815260040160405180910390fd5b60008c90503073ffffffffffffffffffffffffffffffffffffffff168173ffffffffffffffffffffffffffffffffffffffff1663081812fc8e6040518263ffffffff1660e01b81526004016105e791906115ad565b60206040518083038186803b1580156105ff57600080fd5b505afa158015610613573d6000803e3d6000fd5b505050506040513d601f19601f820116820180604052508101906106379190611355565b73ffffffffffffffffffffffffffffffffffffffff1614610684576040517fa82ec0f800000000000000000000000000000000000000000000000000000000815260040160405180910390fd5b60405180604001604052808c81526020013373ffffffffffffffffffffffffffffffffffffffff16815250600160008f73ffffffffffffffffffffffffffffffffffffffff1673ffffffffffffffffffffffffffffffffffffffff16815260200190815260200160002060008e81526020019081526020016000206000820151816000015560208201518160010160006101000a81548173ffffffffffffffffffffffffffffffffffffffff021916908373ffffffffffffffffffffffffffffffffffffffff1602179055509050508b8d73ffffffffffffffffffffffffffffffffffffffff163373ffffffffffffffffffffffffffffffffffffffff167fd547e933094f12a9159076970143ebe73234e64480317844b0dcb36117116de48e6040516107b191906115ad565b60405180910390a450505050505050505050505050565b6107d061125f565b81816000600160008473ffffffffffffffffffffffffffffffffffffffff1673ffffffffffffffffffffffffffffffffffffffff1681526020019081526020016000206000838152602001908152602001600020604051806040016040529081600082015481526020016001820160009054906101000a900473ffffffffffffffffffffffffffffffffffffffff1673ffffffffffffffffffffffffffffffffffffffff1673ffffffffffffffffffffffffffffffffffffffff1681525050905060008160000151116108cf576040517f6421129400000000000000000000000000000000000000000000000000000000815260040160405180910390fd5b6000600160008773ffffffffffffffffffffffffffffffffffffffff1673ffffffffffffffffffffffffffffffffffffffff1681526020019081526020016000206000868152602001908152602001600020604051806040016040529081600082015481526020016001820160009054906101000a900473ffffffffffffffffffffffffffffffffffffffff1673ffffffffffffffffffffffffffffffffffffffff1673ffffffffffffffffffffffffffffffffffffffff1681525050905080600001513410156109df57858582600001516040517f80cfcd780000000000000000000000000000000000000000000000000000000081526004016109d69392919061153b565b60405180910390fd5b3460026000836020015173ffffffffffffffffffffffffffffffffffffffff1673ffffffffffffffffffffffffffffffffffffffff16815260200190815260200160002054610a2e91906115e4565b60026000836020015173ffffffffffffffffffffffffffffffffffffffff1673ffffffffffffffffffffffffffffffffffffffff16815260200190815260200160002081905550600160008773ffffffffffffffffffffffffffffffffffffffff1673ffffffffffffffffffffffffffffffffffffffff16815260200190815260200160002060008681526020019081526020016000206000808201600090556001820160006101000a81549073ffffffffffffffffffffffffffffffffffffffff021916905550508573ffffffffffffffffffffffffffffffffffffffff166342842e0e826020015133886040518463ffffffff1660e01b8152600401610b38939291906114db565b600060405180830381600087803b158015610b5257600080fd5b505af1158015610b66573d6000803e3d6000fd5b50505050848673ffffffffffffffffffffffffffffffffffffffff163373ffffffffffffffffffffffffffffffffffffffff167f263223b1dd81e51054a4e6f791d45a4a1ddb4aadcd93a2dfd892615c3fdac1878460000151604051610bcc91906115ad565b60405180910390a450505050610be06112af565b5050565b81816000600160008473ffffffffffffffffffffffffffffffffffffffff1673ffffffffffffffffffffffffffffffffffffffff1681526020019081526020016000206000838152602001908152602001600020604051806040016040529081600082015481526020016001820160009054906101000a900473ffffffffffffffffffffffffffffffffffffffff1673ffffffffffffffffffffffffffffffffffffffff1673ffffffffffffffffffffffffffffffffffffffff168152505090506000816000015111610ce3576040517f6421129400000000000000000000000000000000000000000000000000000000815260040160405180910390fd5b848433600083905060008173ffffffffffffffffffffffffffffffffffffffff16636352211e856040518263ffffffff1660e01b8152600401610d2691906115ad565b60206040518083038186803b158015610d3e57600080fd5b505afa158015610d52573d6000803e3d6000fd5b505050506040513d601f19601f82011682018060405250810190610d769190611355565b90508073ffffffffffffffffffffffffffffffffffffffff168373ffffffffffffffffffffffffffffffffffffffff1614610ddd576040517f98ca622600000000000000000000000000000000000000000000000000000000815260040160405180910390fd5b600160008b73ffffffffffffffffffffffffffffffffffffffff1673ffffffffffffffffffffffffffffffffffffffff16815260200190815260200160002060008a81526020019081526020016000206000808201600090556001820160006101000a81549073ffffffffffffffffffffffffffffffffffffffff021916905550508973ffffffffffffffffffffffffffffffffffffffff163373ffffffffffffffffffffffffffffffffffffffff167f9ba1a3cb55ce8d63d072a886f94d2a744f50cddf82128e897d0661f5ec6231588b604051610ebc91906115ad565b60405180910390a350505050505050505050565b610ed86112b9565b600160008473ffffffffffffffffffffffffffffffffffffffff1673ffffffffffffffffffffffffffffffffffffffff1681526020019081526020016000206000838152602001908152602001600020604051806040016040529081600082015481526020016001820160009054906101000a900473ffffffffffffffffffffffffffffffffffffffff1673ffffffffffffffffffffffffffffffffffffffff1673ffffffffffffffffffffffffffffffffffffffff1681525050905092915050565b82826000600160008473ffffffffffffffffffffffffffffffffffffffff1673ffffffffffffffffffffffffffffffffffffffff1681526020019081526020016000206000838152602001908152602001600020604051806040016040529081600082015481526020016001820160009054906101000a900473ffffffffffffffffffffffffffffffffffffffff1673ffffffffffffffffffffffffffffffffffffffff1673ffffffffffffffffffffffffffffffffffffffff16815250509050600081600001511161109a576040517f6421129400000000000000000000000000000000000000000000000000000000815260040160405180910390fd5b858533600083905060008173ffffffffffffffffffffffffffffffffffffffff16636352211e856040518263ffffffff1660e01b81526004016110dd91906115ad565b60206040518083038186803b1580156110f557600080fd5b505afa158015611109573d6000803e3d6000fd5b505050506040513d601f19601f8201168201806040525081019061112d9190611355565b90508073ffffffffffffffffffffffffffffffffffffffff168373ffffffffffffffffffffffffffffffffffffffff1614611194576040517f98ca622600000000000000000000000000000000000000000000000000000000815260040160405180910390fd5b88600160008d73ffffffffffffffffffffffffffffffffffffffff1673ffffffffffffffffffffffffffffffffffffffff16815260200190815260200160002060008c815260200190815260200160002060000181905550898b73ffffffffffffffffffffffffffffffffffffffff163373ffffffffffffffffffffffffffffffffffffffff167fd547e933094f12a9159076970143ebe73234e64480317844b0dcb36117116de48c60405161124a91906115ad565b60405180910390a45050505050505050505050565b600260005414156112a5576040517f08c379a000000000000000000000000000000000000000000000000000000000815260040161129c90611572565b60405180910390fd5b6002600081905550565b6001600081905550565b604051806040016040528060008152602001600073ffffffffffffffffffffffffffffffffffffffff1681525090565b6000813590506112f8816116d6565b92915050565b60008151905061130d816116d6565b92915050565b600081359050611322816116ed565b92915050565b60006020828403121561133e5761133d6116a5565b5b600061134c848285016112e9565b91505092915050565b60006020828403121561136b5761136a6116a5565b5b6000611379848285016112fe565b91505092915050565b60008060408385031215611399576113986116a5565b5b60006113a7858286016112e9565b92505060206113b885828601611313565b9150509250929050565b6000806000606084860312156113db576113da6116a5565b5b60006113e9868287016112e9565b93505060206113fa86828701611313565b925050604061140b86828701611313565b9150509250925092565b61141e8161163a565b82525050565b61142d8161163a565b82525050565b60006114406000836115c8565b915061144b826116aa565b600082019050919050565b6000611463601f836115d3565b915061146e826116ad565b602082019050919050565b60408201600082015161148f60008501826114a8565b5060208201516114a26020850182611415565b50505050565b6114b18161166c565b82525050565b6114c08161166c565b82525050565b60006114d182611433565b9150819050919050565b60006060820190506114f06000830186611424565b6114fd6020830185611424565b61150a60408301846114b7565b949350505050565b60006040820190506115276000830185611424565b61153460208301846114b7565b9392505050565b60006060820190506115506000830186611424565b61155d60208301856114b7565b61156a60408301846114b7565b949350505050565b6000602082019050818103600083015261158b81611456565b9050919050565b60006040820190506115a76000830184611479565b92915050565b60006020820190506115c260008301846114b7565b92915050565b600081905092915050565b600082825260208201905092915050565b60006115ef8261166c565b91506115fa8361166c565b9250827fffffffffffffffffffffffffffffffffffffffffffffffffffffffffffffffff0382111561162f5761162e611676565b5b828201905092915050565b60006116458261164c565b9050919050565b600073ffffffffffffffffffffffffffffffffffffffff82169050919050565b6000819050919050565b7f4e487b7100000000000000000000000000000000000000000000000000000000600052601160045260246000fd5b600080fd5b50565b7f5265656e7472616e637947756172643a207265656e7472616e742063616c6c00600082015250565b6116df8161163a565b81146116ea57600080fd5b50565b6116f68161166c565b811461170157600080fd5b5056fea2646970667358221220ea7a9f8dc9f6fff763a856b5fc075b34f27187aec1c180fa71d8ba2e11b3854864736f6c63430008070033",
  "linkReferences": {},
  "deployedLinkReferences": {}
}